:020000040000FA
:1000000002EF00F011EEFFF021EEFFF0F86AA68E8D
:10001000A69CE9680E0EEA6E0068ED6A0050FDE1EC
:100020001C0EF66E010EF76E000EF86E0900F5CF8D
:1000300005F00900F5CF06F034D00900F5CF00F047
:100040000900F5CF01F00900F5CF02F00900090021
:10005000F5CFE9FF0900F5CFEAFF09000900090023
:10006000F5CF03F00900F5CF04F009000900F6CF41
:1000700007F0F7CF08F0F8CF09F000C0F6FF01C095
:10008000F7FF02C0F8FF03D00900F5CFEEFF03062B
:10009000FBE20406F9E207C0F6FF08C0F7FF09C05B
:1000A000F8FF0506CAE20606C8E277EC00F0FFD7C3
:1000B000E806E56E630E6BEC00F0E4500BE000D058
:1000C000E56E630E6BEC00F000D000D00000E45051
:1000D000E82EF6D71200E8060000E85007E000D04E
:1000E00000D000D000D00000E82EFAD71200949083
:1000F0008B90006A8BB0002A0050D880E866D890B8
:10010000006A00360050010BF46E8B50FE0BF410A9
:100110008B6E7D0E58EC00F0ECD7120001002A0126
:0C01200000006000000001000000000072
:020000040030CA
:0100010008F6
:010003001EDE
:010006008178
:00000001FF
